{
  "address": "0x033a2D3D1E39Ab9751B2cf824B4E3f10eCC4C272",
  "abi": [
    {
      "inputs": [
        {
          "internalType": "contract IERC20",
          "name": "_vestingToken",
          "type": "address"
        }
      ],
      "stateMutability": "nonpayable",
      "type": "constructor"
    },
    {
      "anonymous": false,
      "inputs": [
        {
          "indexed": true,
          "internalType": "address",
          "name": "owner",
          "type": "address"
        },
        {
          "indexed": true,
          "internalType": "address",
          "name": "spender",
          "type": "address"
        },
        {
          "indexed": false,
          "internalType": "uint256",
          "name": "value",
          "type": "uint256"
        }
      ],
      "name": "Approval",
      "type": "event"
    },
    {
      "anonymous": false,
      "inputs": [
        {
          "indexed": true,
          "internalType": "address",
          "name": "user",
          "type": "address"
        },
        {
          "indexed": false,
          "internalType": "uint256",
          "name": "vestingInAmount",
          "type": "uint256"
        },
        {
          "indexed": false,
          "internalType": "uint256",
          "name": "mintedAmount",
          "type": "uint256"
        }
      ],
      "name": "Enter",
      "type": "event"
    },
    {
      "anonymous": false,
      "inputs": [
        {
          "indexed": true,
          "internalType": "address",
          "name": "user",
          "type": "address"
        },
        {
          "indexed": false,
          "internalType": "uint256",
          "name": "vestingOutAmount",
          "type": "uint256"
        },
        {
          "indexed": false,
          "internalType": "uint256",
          "name": "burnedAmount",
          "type": "uint256"
        }
      ],
      "name": "Leave",
      "type": "event"
    },
    {
      "anonymous": false,
      "inputs": [
        {
          "indexed": false,
          "internalType": "uint256",
          "name": "amount",
          "type": "uint256"
        }
      ],
      "name": "ShareRevenue",
      "type": "event"
    },
    {
      "anonymous": false,
      "inputs": [
        {
          "indexed": true,
          "internalType": "address",
          "name": "from",
          "type": "address"
        },
        {
          "indexed": true,
          "internalType": "address",
          "name": "to",
          "type": "address"
        },
        {
          "indexed": false,
          "internalType": "uint256",
          "name": "value",
          "type": "uint256"
        }
      ],
      "name": "Transfer",
      "type": "event"
    },
    {
      "inputs": [
        {
          "internalType": "address",
          "name": "owner",
          "type": "address"
        },
        {
          "internalType": "address",
          "name": "spender",
          "type": "address"
        }
      ],
      "name": "allowance",
      "outputs": [
        {
          "internalType": "uint256",
          "name": "",
          "type": "uint256"
        }
      ],
      "stateMutability": "view",
      "type": "function"
    },
    {
      "inputs": [
        {
          "internalType": "address",
          "name": "spender",
          "type": "address"
        },
        {
          "internalType": "uint256",
          "name": "amount",
          "type": "uint256"
        }
      ],
      "name": "approve",
      "outputs": [
        {
          "internalType": "bool",
          "name": "",
          "type": "bool"
        }
      ],
      "stateMutability": "nonpayable",
      "type": "function"
    },
    {
      "inputs": [
        {
          "internalType": "address",
          "name": "account",
          "type": "address"
        }
      ],
      "name": "balanceOf",
      "outputs": [
        {
          "internalType": "uint256",
          "name": "",
          "type": "uint256"
        }
      ],
      "stateMutability": "view",
      "type": "function"
    },
    {
      "inputs": [],
      "name": "decimals",
      "outputs": [
        {
          "internalType": "uint8",
          "name": "",
          "type": "uint8"
        }
      ],
      "stateMutability": "view",
      "type": "function"
    },
    {
      "inputs": [
        {
          "internalType": "address",
          "name": "spender",
          "type": "address"
        },
        {
          "internalType": "uint256",
          "name": "subtractedValue",
          "type": "uint256"
        }
      ],
      "name": "decreaseAllowance",
      "outputs": [
        {
          "internalType": "bool",
          "name": "",
          "type": "bool"
        }
      ],
      "stateMutability": "nonpayable",
      "type": "function"
    },
    {
      "inputs": [
        {
          "internalType": "uint256",
          "name": "_amount",
          "type": "uint256"
        }
      ],
      "name": "enter",
      "outputs": [],
      "stateMutability": "nonpayable",
      "type": "function"
    },
    {
      "inputs": [
        {
          "internalType": "address",
          "name": "spender",
          "type": "address"
        },
        {
          "internalType": "uint256",
          "name": "addedValue",
          "type": "uint256"
        }
      ],
      "name": "increaseAllowance",
      "outputs": [
        {
          "internalType": "bool",
          "name": "",
          "type": "bool"
        }
      ],
      "stateMutability": "nonpayable",
      "type": "function"
    },
    {
      "inputs": [
        {
          "internalType": "uint256",
          "name": "_shareOfFreshBeets",
          "type": "uint256"
        }
      ],
      "name": "leave",
      "outputs": [],
      "stateMutability": "nonpayable",
      "type": "function"
    },
    {
      "inputs": [],
      "name": "name",
      "outputs": [
        {
          "internalType": "string",
          "name": "",
          "type": "string"
        }
      ],
      "stateMutability": "view",
      "type": "function"
    },
    {
      "inputs": [
        {
          "internalType": "uint256",
          "name": "_amount",
          "type": "uint256"
        }
      ],
      "name": "shareRevenue",
      "outputs": [],
      "stateMutability": "nonpayable",
      "type": "function"
    },
    {
      "inputs": [],
      "name": "symbol",
      "outputs": [
        {
          "internalType": "string",
          "name": "",
          "type": "string"
        }
      ],
      "stateMutability": "view",
      "type": "function"
    },
    {
      "inputs": [],
      "name": "totalSupply",
      "outputs": [
        {
          "internalType": "uint256",
          "name": "",
          "type": "uint256"
        }
      ],
      "stateMutability": "view",
      "type": "function"
    },
    {
      "inputs": [
        {
          "internalType": "address",
          "name": "to",
          "type": "address"
        },
        {
          "internalType": "uint256",
          "name": "amount",
          "type": "uint256"
        }
      ],
      "name": "transfer",
      "outputs": [
        {
          "internalType": "bool",
          "name": "",
          "type": "bool"
        }
      ],
      "stateMutability": "nonpayable",
      "type": "function"
    },
    {
      "inputs": [
        {
          "internalType": "address",
          "name": "from",
          "type": "address"
        },
        {
          "internalType": "address",
          "name": "to",
          "type": "address"
        },
        {
          "internalType": "uint256",
          "name": "amount",
          "type": "uint256"
        }
      ],
      "name": "transferFrom",
      "outputs": [
        {
          "internalType": "bool",
          "name": "",
          "type": "bool"
        }
      ],
      "stateMutability": "nonpayable",
      "type": "function"
    },
    {
      "inputs": [],
      "name": "vestingToken",
      "outputs": [
        {
          "internalType": "contract IERC20",
          "name": "",
          "type": "address"
        }
      ],
      "stateMutability": "view",
      "type": "function"
    }
  ],
  "transactionHash": "0x295132f4d694efba3338ee443a34ff447dc7d41f7ff1bebc658e759585a827d0",
  "args": [
    "0xB80Ed6Dfd77B1bE44277Ae81Fbe5264598b1c40C"
  ],
  "solcInputHash": "bddeaf8b2eb25f8ab44e3f6810a550cb",
  "bytecode": "0x60806040523480156200001157600080fd5b506040516200132e3803806200132e83398101604081905262000034916200016a565b604080518082018252600a8152694672657368426565747360b01b60208083019182528351808501909452600684526566424545545360d01b9084015281519192916200008491600391620000c4565b5080516200009a906004906020840190620000c4565b5050600580546001600160a01b0319166001600160a01b03939093169290921790915550620001d7565b828054620000d2906200019a565b90600052602060002090601f016020900481019282620000f6576000855562000141565b82601f106200011157805160ff191683800117855562000141565b8280016001018555821562000141579182015b828111156200014157825182559160200191906001019062000124565b506200014f92915062000153565b5090565b5b808211156200014f576000815560010162000154565b6000602082840312156200017c578081fd5b81516001600160a01b038116811462000193578182fd5b9392505050565b600281046001821680620001af57607f821691505b60208210811415620001d157634e487b7160e01b600052602260045260246000fd5b50919050565b61114780620001e76000396000f3fe608060405234801561001057600080fd5b50600436106100f55760003560e01c80633950935111610097578063a457c2d711610066578063a457c2d7146101e0578063a59f3e0c146101f3578063a9059cbb14610206578063dd62ed3e14610219576100f5565b8063395093511461019f57806367dfd4c9146101b257806370a08231146101c557806395d89b41146101d8576100f5565b806318160ddd116100d357806318160ddd1461014d57806319d152fa1461016257806323b872dd14610177578063313ce5671461018a576100f5565b806306fdde03146100fa578063095ea7b314610118578063139e41e414610138575b600080fd5b61010261022c565b60405161010f9190610d50565b60405180910390f35b61012b610126366004610c7b565b6102be565b60405161010f9190610d45565b61014b610146366004610cc4565b6102e0565b005b6101556103a1565b60405161010f919061102d565b61016a6103a7565b60405161010f9190610cf4565b61012b610185366004610c40565b6103b6565b6101926103e4565b60405161010f9190611044565b61012b6101ad366004610c7b565b6103e9565b61014b6101c0366004610cc4565b610415565b6101556101d3366004610bed565b61059c565b6101026105bb565b61012b6101ee366004610c7b565b6105ca565b61014b610201366004610cc4565b61061b565b61012b610214366004610c7b565b6107af565b610155610227366004610c0e565b6107c7565b60606003805461023b906110c0565b80601f0160208091040260200160405190810160405280929190818152602001828054610267906110c0565b80156102b45780601f10610289576101008083540402835291602001916102b4565b820191906000526020600020905b81548152906001019060200180831161029757829003601f168201915b5050505050905090565b6000806102c96107f2565b90506102d68185856107f6565b5060019392505050565b6005546040516323b872dd60e01b81526001600160a01b03909116906323b872dd9061031490339030908690600401610d08565b602060405180830381600087803b15801561032e57600080fd5b505af1158015610342573d6000803e3d6000fd5b505050506040513d601f19601f820116820180604052508101906103669190610ca4565b507f8345132cbbbde83001e783cdfdd5190dedc863ae82cae7abe302b22322a6027481604051610396919061102d565b60405180910390a150565b60025490565b6005546001600160a01b031681565b6000806103c16107f2565b90506103ce8582856108aa565b6103d98585856108f4565b506001949350505050565b601290565b6000806103f46107f2565b90506102d681858561040685896107c7565b6104109190611052565b6107f6565b8015610599576005546040516370a0823160e01b81526000916001600160a01b0316906370a082319061044c903090600401610cf4565b60206040518083038186803b15801561046457600080fd5b505afa158015610478573d6000803e3d6000fd5b505050506040513d601f19601f8201168201806040525081019061049c9190610cdc565b905060006104a86103a1565b90506000816104b7848661108a565b6104c1919061106a565b90506104cd3385610a18565b60055460405163a9059cbb60e01b81526001600160a01b039091169063a9059cbb906104ff9033908590600401610d2c565b602060405180830381600087803b15801561051957600080fd5b505af115801561052d573d6000803e3d6000fd5b505050506040513d601f19601f820116820180604052508101906105519190610ca4565b50336001600160a01b03167f0f0f7f8153c6d63a5696720d4cc434e56bb5ac1cf8c791ed9c180defb6e92153828660405161058d929190611036565b60405180910390a25050505b50565b6001600160a01b0381166000908152602081905260409020545b919050565b60606004805461023b906110c0565b6000806105d56107f2565b905060006105e382866107c7565b90508381101561060e5760405162461bcd60e51b815260040161060590610fb1565b60405180910390fd5b6103d982868684036107f6565b8015610599576005546040516370a0823160e01b81526000916001600160a01b0316906370a0823190610652903090600401610cf4565b60206040518083038186803b15801561066a57600080fd5b505afa15801561067e573d6000803e3d6000fd5b505050506040513d601f19601f820116820180604052508101906106a29190610cdc565b905060006106ae6103a1565b6005546040516323b872dd60e01b81529192506001600160a01b0316906323b872dd906106e390339030908890600401610d08565b602060405180830381600087803b1580156106fd57600080fd5b505af1158015610711573d6000803e3d6000fd5b505050506040513d601f19601f820116820180604052508101906107359190610ca4565b506000811580610743575082155b1561074f57508261076a565b60008361075c848761108a565b610766919061106a565b9150505b6107743382610b0a565b336001600160a01b03167f5087fbec8bdd9b358f62d89babb5f4dd44f8576230a9520c90e3407d6f4dd1fb858360405161058d929190611036565b6000806107ba6107f2565b90506102d68185856108f4565b6001600160a01b03918216600090815260016020908152604080832093909416825291909152205490565b3390565b6001600160a01b03831661081c5760405162461bcd60e51b815260040161060590610f6d565b6001600160a01b0382166108425760405162461bcd60e51b815260040161060590610e28565b6001600160a01b0380841660008181526001602090815260408083209487168084529490915290819020849055517f8c5be1e5ebec7d5bd14f71427d1e84f3dd0314c0f7b2291e5b200ac8c7c3b9259061089d90859061102d565b60405180910390a3505050565b60006108b684846107c7565b905060001981146108ee57818110156108e15760405162461bcd60e51b815260040161060590610e6a565b6108ee84848484036107f6565b50505050565b6001600160a01b03831661091a5760405162461bcd60e51b815260040161060590610f28565b6001600160a01b0382166109405760405162461bcd60e51b815260040161060590610da3565b61094b838383610b05565b6001600160a01b038316600090815260208190526040902054818110156109845760405162461bcd60e51b815260040161060590610ea1565b6001600160a01b038085166000908152602081905260408082208585039055918516815290812080548492906109bb908490611052565b92505081905550826001600160a01b0316846001600160a01b03167fddf252ad1be2c89b69c2b068fc378daa952ba7f163c4a11628f55a4df523b3ef84604051610a05919061102d565b60405180910390a36108ee848484610b05565b6001600160a01b038216610a3e5760405162461bcd60e51b815260040161060590610ee7565b610a4a82600083610b05565b6001600160a01b03821660009081526020819052604090205481811015610a835760405162461bcd60e51b815260040161060590610de6565b6001600160a01b0383166000908152602081905260408120838303905560028054849290610ab29084906110a9565b90915550506040516000906001600160a01b038516907fddf252ad1be2c89b69c2b068fc378daa952ba7f163c4a11628f55a4df523b3ef90610af590869061102d565b60405180910390a3610b05836000845b505050565b6001600160a01b038216610b305760405162461bcd60e51b815260040161060590610ff6565b610b3c60008383610b05565b8060026000828254610b4e9190611052565b90915550506001600160a01b03821660009081526020819052604081208054839290610b7b908490611052565b90915550506040516001600160a01b038316906000907fddf252ad1be2c89b69c2b068fc378daa952ba7f163c4a11628f55a4df523b3ef90610bbe90859061102d565b60405180910390a3610bd260008383610b05565b5050565b80356001600160a01b03811681146105b657600080fd5b600060208284031215610bfe578081fd5b610c0782610bd6565b9392505050565b60008060408385031215610c20578081fd5b610c2983610bd6565b9150610c3760208401610bd6565b90509250929050565b600080600060608486031215610c54578081fd5b610c5d84610bd6565b9250610c6b60208501610bd6565b9150604084013590509250925092565b60008060408385031215610c8d578182fd5b610c9683610bd6565b946020939093013593505050565b600060208284031215610cb5578081fd5b81518015158114610c07578182fd5b600060208284031215610cd5578081fd5b5035919050565b600060208284031215610ced578081fd5b5051919050565b6001600160a01b0391909116815260200190565b6001600160a01b039384168152919092166020820152604081019190915260600190565b6001600160a01b03929092168252602082015260400190565b901515815260200190565b6000602080835283518082850152825b81811015610d7c57858101830151858201604001528201610d60565b81811115610d8d5783604083870101525b50601f01601f1916929092016040019392505050565b60208082526023908201527f45524332303a207472616e7366657220746f20746865207a65726f206164647260408201526265737360e81b606082015260800190565b60208082526022908201527f45524332303a206275726e20616d6f756e7420657863656564732062616c616e604082015261636560f01b606082015260800190565b60208082526022908201527f45524332303a20617070726f766520746f20746865207a65726f206164647265604082015261737360f01b606082015260800190565b6020808252601d908201527f45524332303a20696e73756666696369656e7420616c6c6f77616e6365000000604082015260600190565b60208082526026908201527f45524332303a207472616e7366657220616d6f756e7420657863656564732062604082015265616c616e636560d01b606082015260800190565b60208082526021908201527f45524332303a206275726e2066726f6d20746865207a65726f206164647265736040820152607360f81b606082015260800190565b60208082526025908201527f45524332303a207472616e736665722066726f6d20746865207a65726f206164604082015264647265737360d81b606082015260800190565b60208082526024908201527f45524332303a20617070726f76652066726f6d20746865207a65726f206164646040820152637265737360e01b606082015260800190565b60208082526025908201527f45524332303a2064656372656173656420616c6c6f77616e63652062656c6f77604082015264207a65726f60d81b606082015260800190565b6020808252601f908201527f45524332303a206d696e7420746f20746865207a65726f206164647265737300604082015260600190565b90815260200190565b918252602082015260400190565b60ff91909116815260200190565b60008219821115611065576110656110fb565b500190565b60008261108557634e487b7160e01b81526012600452602481fd5b500490565b60008160001904831182151516156110a4576110a46110fb565b500290565b6000828210156110bb576110bb6110fb565b500390565b6002810460018216806110d457607f821691505b602082108114156110f557634e487b7160e01b600052602260045260246000fd5b50919050565b634e487b7160e01b600052601160045260246000fdfea26469706673582212208b5f4f75101db7534465d146e2cfbc453034e621bb2dca7a0bccf8cdf6887aaf64736f6c63430008010033"
}