{
  "address": "0x65084de1D8b9A529026c4BCBA65F8469528243b6",
  "abi": [
    {
      "anonymous": false,
      "inputs": [
        {
          "indexed": true,
          "internalType": "address",
          "name": "owner",
          "type": "address"
        },
        {
          "indexed": true,
          "internalType": "address",
          "name": "spender",
          "type": "address"
        },
        {
          "indexed": false,
          "internalType": "uint256",
          "name": "value",
          "type": "uint256"
        }
      ],
      "name": "Approval",
      "type": "event"
    },
    {
      "anonymous": false,
      "inputs": [
        {
          "indexed": true,
          "internalType": "address",
          "name": "previousOwner",
          "type": "address"
        },
        {
          "indexed": true,
          "internalType": "address",
          "name": "newOwner",
          "type": "address"
        }
      ],
      "name": "OwnershipTransferred",
      "type": "event"
    },
    {
      "anonymous": false,
      "inputs": [
        {
          "indexed": true,
          "internalType": "address",
          "name": "from",
          "type": "address"
        },
        {
          "indexed": true,
          "internalType": "address",
          "name": "to",
          "type": "address"
        },
        {
          "indexed": false,
          "internalType": "uint256",
          "name": "value",
          "type": "uint256"
        }
      ],
      "name": "Transfer",
      "type": "event"
    },
    {
      "inputs": [],
      "name": "MAX_SUPPLY",
      "outputs": [
        {
          "internalType": "uint256",
          "name": "",
          "type": "uint256"
        }
      ],
      "stateMutability": "view",
      "type": "function"
    },
    {
      "inputs": [
        {
          "internalType": "address",
          "name": "owner",
          "type": "address"
        },
        {
          "internalType": "address",
          "name": "spender",
          "type": "address"
        }
      ],
      "name": "allowance",
      "outputs": [
        {
          "internalType": "uint256",
          "name": "",
          "type": "uint256"
        }
      ],
      "stateMutability": "view",
      "type": "function"
    },
    {
      "inputs": [
        {
          "internalType": "address",
          "name": "spender",
          "type": "address"
        },
        {
          "internalType": "uint256",
          "name": "amount",
          "type": "uint256"
        }
      ],
      "name": "approve",
      "outputs": [
        {
          "internalType": "bool",
          "name": "",
          "type": "bool"
        }
      ],
      "stateMutability": "nonpayable",
      "type": "function"
    },
    {
      "inputs": [
        {
          "internalType": "address",
          "name": "account",
          "type": "address"
        }
      ],
      "name": "balanceOf",
      "outputs": [
        {
          "internalType": "uint256",
          "name": "",
          "type": "uint256"
        }
      ],
      "stateMutability": "view",
      "type": "function"
    },
    {
      "inputs": [],
      "name": "decimals",
      "outputs": [
        {
          "internalType": "uint8",
          "name": "",
          "type": "uint8"
        }
      ],
      "stateMutability": "view",
      "type": "function"
    },
    {
      "inputs": [
        {
          "internalType": "address",
          "name": "spender",
          "type": "address"
        },
        {
          "internalType": "uint256",
          "name": "subtractedValue",
          "type": "uint256"
        }
      ],
      "name": "decreaseAllowance",
      "outputs": [
        {
          "internalType": "bool",
          "name": "",
          "type": "bool"
        }
      ],
      "stateMutability": "nonpayable",
      "type": "function"
    },
    {
      "inputs": [
        {
          "internalType": "address",
          "name": "spender",
          "type": "address"
        },
        {
          "internalType": "uint256",
          "name": "addedValue",
          "type": "uint256"
        }
      ],
      "name": "increaseAllowance",
      "outputs": [
        {
          "internalType": "bool",
          "name": "",
          "type": "bool"
        }
      ],
      "stateMutability": "nonpayable",
      "type": "function"
    },
    {
      "inputs": [
        {
          "internalType": "address",
          "name": "_to",
          "type": "address"
        },
        {
          "internalType": "uint256",
          "name": "_amount",
          "type": "uint256"
        }
      ],
      "name": "mint",
      "outputs": [],
      "stateMutability": "nonpayable",
      "type": "function"
    },
    {
      "inputs": [],
      "name": "name",
      "outputs": [
        {
          "internalType": "string",
          "name": "",
          "type": "string"
        }
      ],
      "stateMutability": "view",
      "type": "function"
    },
    {
      "inputs": [],
      "name": "owner",
      "outputs": [
        {
          "internalType": "address",
          "name": "",
          "type": "address"
        }
      ],
      "stateMutability": "view",
      "type": "function"
    },
    {
      "inputs": [],
      "name": "renounceOwnership",
      "outputs": [],
      "stateMutability": "nonpayable",
      "type": "function"
    },
    {
      "inputs": [],
      "name": "symbol",
      "outputs": [
        {
          "internalType": "string",
          "name": "",
          "type": "string"
        }
      ],
      "stateMutability": "view",
      "type": "function"
    },
    {
      "inputs": [],
      "name": "totalSupply",
      "outputs": [
        {
          "internalType": "uint256",
          "name": "",
          "type": "uint256"
        }
      ],
      "stateMutability": "view",
      "type": "function"
    },
    {
      "inputs": [
        {
          "internalType": "address",
          "name": "to",
          "type": "address"
        },
        {
          "internalType": "uint256",
          "name": "amount",
          "type": "uint256"
        }
      ],
      "name": "transfer",
      "outputs": [
        {
          "internalType": "bool",
          "name": "",
          "type": "bool"
        }
      ],
      "stateMutability": "nonpayable",
      "type": "function"
    },
    {
      "inputs": [
        {
          "internalType": "address",
          "name": "from",
          "type": "address"
        },
        {
          "internalType": "address",
          "name": "to",
          "type": "address"
        },
        {
          "internalType": "uint256",
          "name": "amount",
          "type": "uint256"
        }
      ],
      "name": "transferFrom",
      "outputs": [
        {
          "internalType": "bool",
          "name": "",
          "type": "bool"
        }
      ],
      "stateMutability": "nonpayable",
      "type": "function"
    },
    {
      "inputs": [
        {
          "internalType": "address",
          "name": "newOwner",
          "type": "address"
        }
      ],
      "name": "transferOwnership",
      "outputs": [],
      "stateMutability": "nonpayable",
      "type": "function"
    }
  ],
  "transactionHash": "0x98b197a6708b7d78d73f8a8dea41e6badb5c36683a0061f514da6430e9c3943b",
  "args": [],
  "solcInputHash": "06fdd0fd82bf9a4127be07528cfe8bfb",
  "bytecode": "0x60806040523480156200001157600080fd5b5060408051808201825260038082526242526f60e81b602080840191825284518086019095528285526242524f60e81b90850152825192939262000057929190620000e6565b5080516200006d906004906020840190620000e6565b5050506200008a620000846200009060201b60201c565b62000094565b620001c9565b3390565b600580546001600160a01b038381166001600160a01b0319831681179093556040519116919082907f8be0079c531659141344cd1fd0a4f28419497f9722a3daafe3b4186f6b6457e090600090a35050565b828054620000f4906200018c565b90600052602060002090601f01602090048101928262000118576000855562000163565b82601f106200013357805160ff191683800117855562000163565b8280016001018555821562000163579182015b828111156200016357825182559160200191906001019062000146565b506200017192915062000175565b5090565b5b8082111562000171576000815560010162000176565b600281046001821680620001a157607f821691505b60208210811415620001c357634e487b7160e01b600052602260045260246000fd5b50919050565b610d0580620001d96000396000f3fe608060405234801561001057600080fd5b50600436106101005760003560e01c806370a0823111610097578063a457c2d711610066578063a457c2d7146101e8578063a9059cbb146101fb578063dd62ed3e1461020e578063f2fde38b1461022157610100565b806370a08231146101b0578063715018a6146101c35780638da5cb5b146101cb57806395d89b41146101e057610100565b8063313ce567116100d3578063313ce5671461016b57806332cb6b0c14610180578063395093511461018857806340c10f191461019b57610100565b806306fdde0314610105578063095ea7b31461012357806318160ddd1461014357806323b872dd14610158575b600080fd5b61010d610234565b60405161011a919061093f565b60405180910390f35b6101366101313660046108f7565b6102c6565b60405161011a9190610934565b61014b6102e8565b60405161011a9190610c59565b6101366101663660046108bc565b6102ee565b61017361031c565b60405161011a9190610c62565b61014b610321565b6101366101963660046108f7565b610330565b6101ae6101a93660046108f7565b61035c565b005b61014b6101be366004610869565b6103b8565b6101ae6103d7565b6101d36103eb565b60405161011a9190610920565b61010d6103fa565b6101366101f63660046108f7565b610409565b6101366102093660046108f7565b610451565b61014b61021c36600461088a565b610469565b6101ae61022f366004610869565b610494565b60606003805461024390610c94565b80601f016020809104026020016040519081016040528092919081815260200182805461026f90610c94565b80156102bc5780601f10610291576101008083540402835291602001916102bc565b820191906000526020600020905b81548152906001019060200180831161029f57829003601f168201915b5050505050905090565b6000806102d16104ce565b90506102de8185856104d2565b5060019392505050565b60025490565b6000806102f96104ce565b9050610306858285610586565b6103118585856105d0565b506001949350505050565b601290565b6acecb8f27f4200f3a00000081565b60008061033b6104ce565b90506102de81858561034d8589610469565b6103579190610c70565b6104d2565b6103646106f4565b6acecb8f27f4200f3a000000816103796102e8565b6103839190610c70565b11156103aa5760405162461bcd60e51b81526004016103a190610bdd565b60405180910390fd5b6103b48282610733565b5050565b6001600160a01b0381166000908152602081905260409020545b919050565b6103df6106f4565b6103e960006107fb565b565b6005546001600160a01b031690565b60606004805461024390610c94565b6000806104146104ce565b905060006104228286610469565b9050838110156104445760405162461bcd60e51b81526004016103a190610b98565b61031182868684036104d2565b60008061045c6104ce565b90506102de8185856105d0565b6001600160a01b03918216600090815260016020908152604080832093909416825291909152205490565b61049c6106f4565b6001600160a01b0381166104c25760405162461bcd60e51b81526004016103a1906109d5565b6104cb816107fb565b50565b3390565b6001600160a01b0383166104f85760405162461bcd60e51b81526004016103a190610b54565b6001600160a01b03821661051e5760405162461bcd60e51b81526004016103a190610a1b565b6001600160a01b0380841660008181526001602090815260408083209487168084529490915290819020849055517f8c5be1e5ebec7d5bd14f71427d1e84f3dd0314c0f7b2291e5b200ac8c7c3b92590610579908590610c59565b60405180910390a3505050565b60006105928484610469565b905060001981146105ca57818110156105bd5760405162461bcd60e51b81526004016103a190610a5d565b6105ca84848484036104d2565b50505050565b6001600160a01b0383166105f65760405162461bcd60e51b81526004016103a190610b0f565b6001600160a01b03821661061c5760405162461bcd60e51b81526004016103a190610992565b61062783838361084d565b6001600160a01b038316600090815260208190526040902054818110156106605760405162461bcd60e51b81526004016103a190610a94565b6001600160a01b03808516600090815260208190526040808220858503905591851681529081208054849290610697908490610c70565b92505081905550826001600160a01b0316846001600160a01b03167fddf252ad1be2c89b69c2b068fc378daa952ba7f163c4a11628f55a4df523b3ef846040516106e19190610c59565b60405180910390a36105ca84848461084d565b6106fc6104ce565b6001600160a01b031661070d6103eb565b6001600160a01b0316146103e95760405162461bcd60e51b81526004016103a190610ada565b6001600160a01b0382166107595760405162461bcd60e51b81526004016103a190610c22565b6107656000838361084d565b80600260008282546107779190610c70565b90915550506001600160a01b038216600090815260208190526040812080548392906107a4908490610c70565b90915550506040516001600160a01b038316906000907fddf252ad1be2c89b69c2b068fc378daa952ba7f163c4a11628f55a4df523b3ef906107e7908590610c59565b60405180910390a36103b46000838361084d565b600580546001600160a01b038381166001600160a01b0319831681179093556040519116919082907f8be0079c531659141344cd1fd0a4f28419497f9722a3daafe3b4186f6b6457e090600090a35050565b505050565b80356001600160a01b03811681146103d257600080fd5b60006020828403121561087a578081fd5b61088382610852565b9392505050565b6000806040838503121561089c578081fd5b6108a583610852565b91506108b360208401610852565b90509250929050565b6000806000606084860312156108d0578081fd5b6108d984610852565b92506108e760208501610852565b9150604084013590509250925092565b60008060408385031215610909578182fd5b61091283610852565b946020939093013593505050565b6001600160a01b0391909116815260200190565b901515815260200190565b6000602080835283518082850152825b8181101561096b5785810183015185820160400152820161094f565b8181111561097c5783604083870101525b50601f01601f1916929092016040019392505050565b60208082526023908201527f45524332303a207472616e7366657220746f20746865207a65726f206164647260408201526265737360e81b606082015260800190565b60208082526026908201527f4f776e61626c653a206e6577206f776e657220697320746865207a65726f206160408201526564647265737360d01b606082015260800190565b60208082526022908201527f45524332303a20617070726f766520746f20746865207a65726f206164647265604082015261737360f01b606082015260800190565b6020808252601d908201527f45524332303a20696e73756666696369656e7420616c6c6f77616e6365000000604082015260600190565b60208082526026908201527f45524332303a207472616e7366657220616d6f756e7420657863656564732062604082015265616c616e636560d01b606082015260800190565b6020808252818101527f4f776e61626c653a2063616c6c6572206973206e6f7420746865206f776e6572604082015260600190565b60208082526025908201527f45524332303a207472616e736665722066726f6d20746865207a65726f206164604082015264647265737360d81b606082015260800190565b60208082526024908201527f45524332303a20617070726f76652066726f6d20746865207a65726f206164646040820152637265737360e01b606082015260800190565b60208082526025908201527f45524332303a2064656372656173656420616c6c6f77616e63652062656c6f77604082015264207a65726f60d81b606082015260800190565b60208082526025908201527f42454554533a3a6d696e743a2063616e6e6f7420657863656564206d617820736040820152647570706c7960d81b606082015260800190565b6020808252601f908201527f45524332303a206d696e7420746f20746865207a65726f206164647265737300604082015260600190565b90815260200190565b60ff91909116815260200190565b60008219821115610c8f57634e487b7160e01b81526011600452602481fd5b500190565b600281046001821680610ca857607f821691505b60208210811415610cc957634e487b7160e01b600052602260045260246000fd5b5091905056fea2646970667358221220e3aa31d0ae81bf1fee5647de1e0f11cadbf783be9333ead616b5bc196b48593c64736f6c63430008000033"
}