{
  "address": "0x999216a2F68C4E6c6300bb29dfF81425bcA86780",
  "abi": [
    {
      "inputs": [
        {
          "internalType": "string",
          "name": "name_",
          "type": "string"
        },
        {
          "internalType": "string",
          "name": "symbol_",
          "type": "string"
        },
        {
          "internalType": "uint8",
          "name": "decimals_",
          "type": "uint8"
        },
        {
          "internalType": "uint256",
          "name": "totalSupply_",
          "type": "uint256"
        }
      ],
      "stateMutability": "nonpayable",
      "type": "constructor"
    },
    {
      "anonymous": false,
      "inputs": [
        {
          "indexed": true,
          "internalType": "address",
          "name": "owner",
          "type": "address"
        },
        {
          "indexed": true,
          "internalType": "address",
          "name": "spender",
          "type": "address"
        },
        {
          "indexed": false,
          "internalType": "uint256",
          "name": "value",
          "type": "uint256"
        }
      ],
      "name": "Approval",
      "type": "event"
    },
    {
      "anonymous": false,
      "inputs": [
        {
          "indexed": true,
          "internalType": "address",
          "name": "from",
          "type": "address"
        },
        {
          "indexed": true,
          "internalType": "address",
          "name": "to",
          "type": "address"
        },
        {
          "indexed": false,
          "internalType": "uint256",
          "name": "value",
          "type": "uint256"
        }
      ],
      "name": "Transfer",
      "type": "event"
    },
    {
      "inputs": [
        {
          "internalType": "address",
          "name": "owner",
          "type": "address"
        },
        {
          "internalType": "address",
          "name": "spender",
          "type": "address"
        }
      ],
      "name": "allowance",
      "outputs": [
        {
          "internalType": "uint256",
          "name": "",
          "type": "uint256"
        }
      ],
      "stateMutability": "view",
      "type": "function"
    },
    {
      "inputs": [
        {
          "internalType": "address",
          "name": "spender",
          "type": "address"
        },
        {
          "internalType": "uint256",
          "name": "amount",
          "type": "uint256"
        }
      ],
      "name": "approve",
      "outputs": [
        {
          "internalType": "bool",
          "name": "",
          "type": "bool"
        }
      ],
      "stateMutability": "nonpayable",
      "type": "function"
    },
    {
      "inputs": [
        {
          "internalType": "address",
          "name": "account",
          "type": "address"
        }
      ],
      "name": "balanceOf",
      "outputs": [
        {
          "internalType": "uint256",
          "name": "",
          "type": "uint256"
        }
      ],
      "stateMutability": "view",
      "type": "function"
    },
    {
      "inputs": [],
      "name": "decimals",
      "outputs": [
        {
          "internalType": "uint8",
          "name": "",
          "type": "uint8"
        }
      ],
      "stateMutability": "view",
      "type": "function"
    },
    {
      "inputs": [
        {
          "internalType": "address",
          "name": "spender",
          "type": "address"
        },
        {
          "internalType": "uint256",
          "name": "subtractedValue",
          "type": "uint256"
        }
      ],
      "name": "decreaseAllowance",
      "outputs": [
        {
          "internalType": "bool",
          "name": "",
          "type": "bool"
        }
      ],
      "stateMutability": "nonpayable",
      "type": "function"
    },
    {
      "inputs": [
        {
          "internalType": "address",
          "name": "spender",
          "type": "address"
        },
        {
          "internalType": "uint256",
          "name": "addedValue",
          "type": "uint256"
        }
      ],
      "name": "increaseAllowance",
      "outputs": [
        {
          "internalType": "bool",
          "name": "",
          "type": "bool"
        }
      ],
      "stateMutability": "nonpayable",
      "type": "function"
    },
    {
      "inputs": [],
      "name": "mint",
      "outputs": [],
      "stateMutability": "nonpayable",
      "type": "function"
    },
    {
      "inputs": [
        {
          "internalType": "uint256",
          "name": "amount",
          "type": "uint256"
        }
      ],
      "name": "mint",
      "outputs": [],
      "stateMutability": "nonpayable",
      "type": "function"
    },
    {
      "inputs": [
        {
          "internalType": "address",
          "name": "recipient",
          "type": "address"
        },
        {
          "internalType": "uint256",
          "name": "amount",
          "type": "uint256"
        }
      ],
      "name": "mintTo",
      "outputs": [],
      "stateMutability": "nonpayable",
      "type": "function"
    },
    {
      "inputs": [
        {
          "internalType": "address",
          "name": "recipient",
          "type": "address"
        }
      ],
      "name": "mintTo",
      "outputs": [],
      "stateMutability": "nonpayable",
      "type": "function"
    },
    {
      "inputs": [],
      "name": "name",
      "outputs": [
        {
          "internalType": "string",
          "name": "",
          "type": "string"
        }
      ],
      "stateMutability": "view",
      "type": "function"
    },
    {
      "inputs": [],
      "name": "symbol",
      "outputs": [
        {
          "internalType": "string",
          "name": "",
          "type": "string"
        }
      ],
      "stateMutability": "view",
      "type": "function"
    },
    {
      "inputs": [],
      "name": "totalSupply",
      "outputs": [
        {
          "internalType": "uint256",
          "name": "",
          "type": "uint256"
        }
      ],
      "stateMutability": "view",
      "type": "function"
    },
    {
      "inputs": [
        {
          "internalType": "address",
          "name": "recipient",
          "type": "address"
        },
        {
          "internalType": "uint256",
          "name": "amount",
          "type": "uint256"
        }
      ],
      "name": "transfer",
      "outputs": [
        {
          "internalType": "bool",
          "name": "",
          "type": "bool"
        }
      ],
      "stateMutability": "nonpayable",
      "type": "function"
    },
    {
      "inputs": [
        {
          "internalType": "address",
          "name": "sender",
          "type": "address"
        },
        {
          "internalType": "address",
          "name": "recipient",
          "type": "address"
        },
        {
          "internalType": "uint256",
          "name": "amount",
          "type": "uint256"
        }
      ],
      "name": "transferFrom",
      "outputs": [
        {
          "internalType": "bool",
          "name": "",
          "type": "bool"
        }
      ],
      "stateMutability": "nonpayable",
      "type": "function"
    }
  ],
  "transactionHash": "0x2e2d56c800a69d8244deded467bdda3636eb0260c2b88cd19dd41d3faeb7abd8",
  "args": [
    "ChainLink",
    "LINK",
    18,
    "1000000000000000000000000"
  ],
  "solcInputHash": "83a15fbbf22ce14e7f5bf698897c4100",
  "bytecode": "0x60806040523480156200001157600080fd5b5060405162000ea138038062000ea1833981016040819052620000349162000233565b835162000049906003906020870190620000c0565b5082516200005f906004906020860190620000c0565b506005805460ff191660ff8416179055336000818152602081815260408083208590556002859055518481527fddf252ad1be2c89b69c2b068fc378daa952ba7f163c4a11628f55a4df523b3ef910160405180910390a350505050620002fa565b828054620000ce90620002be565b90600052602060002090601f016020900481019282620000f257600085556200013d565b82601f106200010d57805160ff19168380011785556200013d565b828001600101855582156200013d579182015b828111156200013d57825182559160200191906001019062000120565b506200014b9291506200014f565b5090565b5b808211156200014b576000815560010162000150565b634e487b7160e01b600052604160045260246000fd5b600082601f8301126200018e57600080fd5b81516001600160401b0380821115620001ab57620001ab62000166565b604051601f8301601f19908116603f01168101908282118183101715620001d657620001d662000166565b81604052838152602092508683858801011115620001f357600080fd5b600091505b83821015620002175785820183015181830184015290820190620001f8565b83821115620002295760008385830101525b9695505050505050565b600080600080608085870312156200024a57600080fd5b84516001600160401b03808211156200026257600080fd5b62000270888389016200017c565b955060208701519150808211156200028757600080fd5b5062000296878288016200017c565b935050604085015160ff81168114620002ae57600080fd5b6060959095015193969295505050565b600181811c90821680620002d357607f821691505b602082108103620002f457634e487b7160e01b600052602260045260246000fd5b50919050565b610b97806200030a6000396000f3fe608060405234801561001057600080fd5b50600436106100f55760003560e01c8063449a52f811610097578063a0712d6811610066578063a0712d68146101e9578063a457c2d7146101fc578063a9059cbb1461020f578063dd62ed3e1461022257600080fd5b8063449a52f81461019257806370a08231146101a5578063755edd17146101ce57806395d89b41146101e157600080fd5b806318160ddd116100d357806318160ddd1461014557806323b872dd14610157578063313ce5671461016a578063395093511461017f57600080fd5b806306fdde03146100fa578063095ea7b3146101185780631249c58b1461013b575b600080fd5b61010261025b565b60405161010f919061088b565b60405180910390f35b61012b6101263660046108fc565b6102ed565b604051901515815260200161010f565b610143610304565b005b6002545b60405190815260200161010f565b61012b610165366004610926565b61032e565b60055460405160ff909116815260200161010f565b61012b61018d3660046108fc565b6103e4565b6101436101a03660046108fc565b61041b565b6101496101b3366004610962565b6001600160a01b031660009081526020819052604090205490565b6101436101dc366004610962565b610429565b610102610443565b6101436101f7366004610984565b610452565b61012b61020a3660046108fc565b61045c565b61012b61021d3660046108fc565b6104f7565b61014961023036600461099d565b6001600160a01b03918216600090815260016020908152604080832093909416825291909152205490565b60606003805461026a906109d0565b80601f0160208091040260200160405190810160405280929190818152602001828054610296906109d0565b80156102e35780601f106102b8576101008083540402835291602001916102e3565b820191906000526020600020905b8154815290600101906020018083116102c657829003601f168201915b5050505050905090565b60006102fa338484610504565b5060015b92915050565b60055461032c90339061031b9060ff16600a610b04565b610327906103e8610b13565b610628565b565b600061033b8484846106b3565b6001600160a01b0384166000908152600160209081526040808320338452909152902054828110156103c55760405162461bcd60e51b815260206004820152602860248201527f45524332303a207472616e7366657220616d6f756e74206578636565647320616044820152676c6c6f77616e636560c01b60648201526084015b60405180910390fd5b6103d985336103d48685610b32565b610504565b506001949350505050565b3360008181526001602090815260408083206001600160a01b038716845290915281205490916102fa9185906103d4908690610b49565b6104258282610628565b5050565b60055461044090829061031b9060ff16600a610b04565b50565b60606004805461026a906109d0565b6104403382610628565b3360009081526001602090815260408083206001600160a01b0386168452909152812054828110156104de5760405162461bcd60e51b815260206004820152602560248201527f45524332303a2064656372656173656420616c6c6f77616e63652062656c6f77604482015264207a65726f60d81b60648201526084016103bc565b6104ed33856103d48685610b32565b5060019392505050565b60006102fa3384846106b3565b6001600160a01b0383166105665760405162461bcd60e51b8152602060048201526024808201527f45524332303a20617070726f76652066726f6d20746865207a65726f206164646044820152637265737360e01b60648201526084016103bc565b6001600160a01b0382166105c75760405162461bcd60e51b815260206004820152602260248201527f45524332303a20617070726f766520746f20746865207a65726f206164647265604482015261737360f01b60648201526084016103bc565b6001600160a01b0383811660008181526001602090815260408083209487168084529482529182902085905590518481527f8c5be1e5ebec7d5bd14f71427d1e84f3dd0314c0f7b2291e5b200ac8c7c3b925910160405180910390a3505050565b6001600160a01b03821660009081526020819052604081208054839290610650908490610b49565b9250508190555080600260008282546106699190610b49565b90915550506040518181526001600160a01b038316906000907fddf252ad1be2c89b69c2b068fc378daa952ba7f163c4a11628f55a4df523b3ef9060200160405180910390a35050565b6001600160a01b0383166107175760405162461bcd60e51b815260206004820152602560248201527f45524332303a207472616e736665722066726f6d20746865207a65726f206164604482015264647265737360d81b60648201526084016103bc565b6001600160a01b0382166107795760405162461bcd60e51b815260206004820152602360248201527f45524332303a207472616e7366657220746f20746865207a65726f206164647260448201526265737360e81b60648201526084016103bc565b6001600160a01b038316600090815260208190526040902054818110156107f15760405162461bcd60e51b815260206004820152602660248201527f45524332303a207472616e7366657220616d6f756e7420657863656564732062604482015265616c616e636560d01b60648201526084016103bc565b6107fb8282610b32565b6001600160a01b038086166000908152602081905260408082209390935590851681529081208054849290610831908490610b49565b92505081905550826001600160a01b0316846001600160a01b03167fddf252ad1be2c89b69c2b068fc378daa952ba7f163c4a11628f55a4df523b3ef8460405161087d91815260200190565b60405180910390a350505050565b600060208083528351808285015260005b818110156108b85785810183015185820160400152820161089c565b818111156108ca576000604083870101525b50601f01601f1916929092016040019392505050565b80356001600160a01b03811681146108f757600080fd5b919050565b6000806040838503121561090f57600080fd5b610918836108e0565b946020939093013593505050565b60008060006060848603121561093b57600080fd5b610944846108e0565b9250610952602085016108e0565b9150604084013590509250925092565b60006020828403121561097457600080fd5b61097d826108e0565b9392505050565b60006020828403121561099657600080fd5b5035919050565b600080604083850312156109b057600080fd5b6109b9836108e0565b91506109c7602084016108e0565b90509250929050565b600181811c908216806109e457607f821691505b602082108103610a0457634e487b7160e01b600052602260045260246000fd5b50919050565b634e487b7160e01b600052601160045260246000fd5b600181815b80851115610a5b578160001904821115610a4157610a41610a0a565b80851615610a4e57918102915b93841c9390800290610a25565b509250929050565b600082610a72575060016102fe565b81610a7f575060006102fe565b8160018114610a955760028114610a9f57610abb565b60019150506102fe565b60ff841115610ab057610ab0610a0a565b50506001821b6102fe565b5060208310610133831016604e8410600b8410161715610ade575081810a6102fe565b610ae88383610a20565b8060001904821115610afc57610afc610a0a565b029392505050565b600061097d60ff841683610a63565b6000816000190483118215151615610b2d57610b2d610a0a565b500290565b600082821015610b4457610b44610a0a565b500390565b60008219821115610b5c57610b5c610a0a565b50019056fea26469706673582212202297aa19dfec3abeef30484d963b77b41b891d8480203549884b99e3674e21a764736f6c634300080e0033"
}