{
  "address": "0x23E5A4072064FBC77F7c6E410072e4Fe44638e9b",
  "abi": [
    {
      "constant": true,
      "inputs": [],
      "name": "name",
      "outputs": [
        {
          "name": "",
          "type": "string"
        }
      ],
      "payable": false,
      "stateMutability": "view",
      "type": "function"
    },
    {
      "constant": false,
      "inputs": [
        {
          "name": "spender",
          "type": "address"
        },
        {
          "name": "value",
          "type": "uint256"
        }
      ],
      "name": "approve",
      "outputs": [
        {
          "name": "",
          "type": "bool"
        }
      ],
      "payable": false,
      "stateMutability": "nonpayable",
      "type": "function"
    },
    {
      "constant": true,
      "inputs": [],
      "name": "totalSupply",
      "outputs": [
        {
          "name": "",
          "type": "uint256"
        }
      ],
      "payable": false,
      "stateMutability": "view",
      "type": "function"
    },
    {
      "constant": false,
      "inputs": [
        {
          "name": "from",
          "type": "address"
        },
        {
          "name": "to",
          "type": "address"
        },
        {
          "name": "value",
          "type": "uint256"
        }
      ],
      "name": "transferFrom",
      "outputs": [
        {
          "name": "",
          "type": "bool"
        }
      ],
      "payable": false,
      "stateMutability": "nonpayable",
      "type": "function"
    },
    {
      "constant": false,
      "inputs": [
        {
          "name": "amount",
          "type": "uint256"
        }
      ],
      "name": "withdraw",
      "outputs": [
        {
          "name": "",
          "type": "uint256"
        }
      ],
      "payable": false,
      "stateMutability": "nonpayable",
      "type": "function"
    },
    {
      "constant": true,
      "inputs": [],
      "name": "decimals",
      "outputs": [
        {
          "name": "",
          "type": "uint8"
        }
      ],
      "payable": false,
      "stateMutability": "view",
      "type": "function"
    },
    {
      "constant": true,
      "inputs": [],
      "name": "ERR_NO_ERROR",
      "outputs": [
        {
          "name": "",
          "type": "uint256"
        }
      ],
      "payable": false,
      "stateMutability": "view",
      "type": "function"
    },
    {
      "constant": false,
      "inputs": [
        {
          "name": "spender",
          "type": "address"
        },
        {
          "name": "addedValue",
          "type": "uint256"
        }
      ],
      "name": "increaseAllowance",
      "outputs": [
        {
          "name": "",
          "type": "bool"
        }
      ],
      "payable": false,
      "stateMutability": "nonpayable",
      "type": "function"
    },
    {
      "constant": false,
      "inputs": [],
      "name": "unpause",
      "outputs": [],
      "payable": false,
      "stateMutability": "nonpayable",
      "type": "function"
    },
    {
      "constant": true,
      "inputs": [
        {
          "name": "account",
          "type": "address"
        }
      ],
      "name": "isPauser",
      "outputs": [
        {
          "name": "",
          "type": "bool"
        }
      ],
      "payable": false,
      "stateMutability": "view",
      "type": "function"
    },
    {
      "constant": true,
      "inputs": [],
      "name": "paused",
      "outputs": [
        {
          "name": "",
          "type": "bool"
        }
      ],
      "payable": false,
      "stateMutability": "view",
      "type": "function"
    },
    {
      "constant": true,
      "inputs": [],
      "name": "ERR_INVALID_ZERO_VALUE",
      "outputs": [
        {
          "name": "",
          "type": "uint256"
        }
      ],
      "payable": false,
      "stateMutability": "view",
      "type": "function"
    },
    {
      "constant": false,
      "inputs": [],
      "name": "renouncePauser",
      "outputs": [],
      "payable": false,
      "stateMutability": "nonpayable",
      "type": "function"
    },
    {
      "constant": true,
      "inputs": [
        {
          "name": "account",
          "type": "address"
        }
      ],
      "name": "balanceOf",
      "outputs": [
        {
          "name": "",
          "type": "uint256"
        }
      ],
      "payable": false,
      "stateMutability": "view",
      "type": "function"
    },
    {
      "constant": false,
      "inputs": [
        {
          "name": "account",
          "type": "address"
        }
      ],
      "name": "addPauser",
      "outputs": [],
      "payable": false,
      "stateMutability": "nonpayable",
      "type": "function"
    },
    {
      "constant": false,
      "inputs": [],
      "name": "pause",
      "outputs": [],
      "payable": false,
      "stateMutability": "nonpayable",
      "type": "function"
    },
    {
      "constant": true,
      "inputs": [],
      "name": "symbol",
      "outputs": [
        {
          "name": "",
          "type": "string"
        }
      ],
      "payable": false,
      "stateMutability": "view",
      "type": "function"
    },
    {
      "constant": false,
      "inputs": [
        {
          "name": "spender",
          "type": "address"
        },
        {
          "name": "subtractedValue",
          "type": "uint256"
        }
      ],
      "name": "decreaseAllowance",
      "outputs": [
        {
          "name": "",
          "type": "bool"
        }
      ],
      "payable": false,
      "stateMutability": "nonpayable",
      "type": "function"
    },
    {
      "constant": false,
      "inputs": [
        {
          "name": "to",
          "type": "address"
        },
        {
          "name": "value",
          "type": "uint256"
        }
      ],
      "name": "transfer",
      "outputs": [
        {
          "name": "",
          "type": "bool"
        }
      ],
      "payable": false,
      "stateMutability": "nonpayable",
      "type": "function"
    },
    {
      "constant": false,
      "inputs": [],
      "name": "deposit",
      "outputs": [
        {
          "name": "",
          "type": "uint256"
        }
      ],
      "payable": true,
      "stateMutability": "payable",
      "type": "function"
    },
    {
      "constant": true,
      "inputs": [
        {
          "name": "owner",
          "type": "address"
        },
        {
          "name": "spender",
          "type": "address"
        }
      ],
      "name": "allowance",
      "outputs": [
        {
          "name": "",
          "type": "uint256"
        }
      ],
      "payable": false,
      "stateMutability": "view",
      "type": "function"
    },
    {
      "inputs": [],
      "payable": false,
      "stateMutability": "nonpayable",
      "type": "constructor"
    },
    {
      "anonymous": false,
      "inputs": [
        {
          "indexed": false,
          "name": "account",
          "type": "address"
        }
      ],
      "name": "Paused",
      "type": "event"
    },
    {
      "anonymous": false,
      "inputs": [
        {
          "indexed": false,
          "name": "account",
          "type": "address"
        }
      ],
      "name": "Unpaused",
      "type": "event"
    },
    {
      "anonymous": false,
      "inputs": [
        {
          "indexed": true,
          "name": "account",
          "type": "address"
        }
      ],
      "name": "PauserAdded",
      "type": "event"
    },
    {
      "anonymous": false,
      "inputs": [
        {
          "indexed": true,
          "name": "account",
          "type": "address"
        }
      ],
      "name": "PauserRemoved",
      "type": "event"
    },
    {
      "anonymous": false,
      "inputs": [
        {
          "indexed": true,
          "name": "from",
          "type": "address"
        },
        {
          "indexed": true,
          "name": "to",
          "type": "address"
        },
        {
          "indexed": false,
          "name": "value",
          "type": "uint256"
        }
      ],
      "name": "Transfer",
      "type": "event"
    },
    {
      "anonymous": false,
      "inputs": [
        {
          "indexed": true,
          "name": "owner",
          "type": "address"
        },
        {
          "indexed": true,
          "name": "spender",
          "type": "address"
        },
        {
          "indexed": false,
          "name": "value",
          "type": "uint256"
        }
      ],
      "name": "Approval",
      "type": "event"
    }
  ],
  "transactionHash": "0x8d12fd4a83607f2d427b66ff79752d6f59bc10e8be6676c4e216d7c413275961",
  "args": [],
  "solcInputHash": "a3566feaaf2769efdd8412eef35f814b",
  "bytecode": "0x60806040523480156200001157600080fd5b50604080518082018252601081527f5772617070656420457468657265756d0000000000000000000000000000000060208083019182528351808501909452600484527f5745544800000000000000000000000000000000000000000000000000000000908401528151919291601291620000909160039190620002b2565b508151620000a6906004906020850190620002b2565b506005805460ff191660ff9290921691909117905550620000e49050620000d5640100000000620000f4810204565b640100000000620000f9810204565b6007805460ff1916905562000354565b335b90565b620001146006826401000000006200172b6200014b82021704565b604051600160a060020a038216907f6719d08c1888103bea251a4ed56406bd0c3e69723c8a1686e017e7bbe159b6f890600090a250565b620001608282640100000000620001f2810204565b15620001cd57604080517f08c379a000000000000000000000000000000000000000000000000000000000815260206004820152601f60248201527f526f6c65733a206163636f756e7420616c72656164792068617320726f6c6500604482015290519081900360640190fd5b600160a060020a0316600090815260209190915260409020805460ff19166001179055565b6000600160a060020a03821615156200029257604080517f08c379a000000000000000000000000000000000000000000000000000000000815260206004820152602260248201527f526f6c65733a206163636f756e7420697320746865207a65726f20616464726560448201527f7373000000000000000000000000000000000000000000000000000000000000606482015290519081900360840190fd5b50600160a060020a03166000908152602091909152604090205460ff1690565b828054600181600116156101000203166002900490600052602060002090601f016020900481019282601f10620002f557805160ff191683800117855562000325565b8280016001018555821562000325579182015b828111156200032557825182559160200191906001019062000308565b506200033392915062000337565b5090565b620000f691905b808211156200033357600081556001016200033e565b6117fb80620003646000396000f3fe60806040526004361061011c5763ffffffff7c010000000000000000000000000000000000000000000000000000000060003504166306fdde038114610121578063095ea7b3146101ab57806318160ddd146101f857806323b872dd1461021f5780632e1a7d4d14610262578063313ce5671461028c57806335052d6e146102b757806339509351146102cc5780633f4ba83a1461030557806346fbf68e1461031c5780635c975abb1461034f5780636d7497b3146103645780636ef8d66d1461037957806370a082311461038e57806382dc1ec4146103c15780638456cb59146103f457806395d89b4114610409578063a457c2d71461041e578063a9059cbb14610457578063d0e30db014610490578063dd62ed3e14610498575b600080fd5b34801561012d57600080fd5b506101366104d3565b6040805160208082528351818301528351919283929083019185019080838360005b83811015610170578181015183820152602001610158565b50505050905090810190601f16801561019d5780820380516001836020036101000a031916815260200191505b509250505060405180910390f35b3480156101b757600080fd5b506101e4600480360360408110156101ce57600080fd5b50600160a060020a03813516906020013561056a565b604080519115158252519081900360200190f35b34801561020457600080fd5b5061020d6105c7565b60408051918252519081900360200190f35b34801561022b57600080fd5b506101e46004803603606081101561024257600080fd5b50600160a060020a038135811691602081013590911690604001356105cd565b34801561026e57600080fd5b5061020d6004803603602081101561028557600080fd5b503561062c565b34801561029857600080fd5b506102a16106c9565b6040805160ff9092168252519081900360200190f35b3480156102c357600080fd5b5061020d6106d2565b3480156102d857600080fd5b506101e4600480360360408110156102ef57600080fd5b50600160a060020a0381351690602001356106d7565b34801561031157600080fd5b5061031a61072d565b005b34801561032857600080fd5b506101e46004803603602081101561033f57600080fd5b5035600160a060020a0316610865565b34801561035b57600080fd5b506101e461087e565b34801561037057600080fd5b5061020d610887565b34801561038557600080fd5b5061031a61088c565b34801561039a57600080fd5b5061020d600480360360208110156103b157600080fd5b5035600160a060020a031661089e565b3480156103cd57600080fd5b5061031a600480360360208110156103e457600080fd5b5035600160a060020a03166108b9565b34801561040057600080fd5b5061031a61094c565b34801561041557600080fd5b50610136610a52565b34801561042a57600080fd5b506101e46004803603604081101561044157600080fd5b50600160a060020a038135169060200135610ab3565b34801561046357600080fd5b506101e46004803603604081101561047a57600080fd5b50600160a060020a038135169060200135610b09565b61020d610b5f565b3480156104a457600080fd5b5061020d600480360360408110156104bb57600080fd5b50600160a060020a0381358116916020013516610bca565b60038054604080516020601f600260001961010060018816150201909516949094049384018190048102820181019092528281526060939092909183018282801561055f5780601f106105345761010080835404028352916020019161055f565b820191906000526020600020905b81548152906001019060200180831161054257829003601f168201915b505050505090505b90565b60075460009060ff16156105b6576040805160e560020a62461bcd02815260206004820152601060248201526000805160206117b0833981519152604482015290519081900360640190fd5b6105c08383610bf5565b9392505050565b60025490565b60075460009060ff1615610619576040805160e560020a62461bcd02815260206004820152601060248201526000805160206117b0833981519152604482015290519081900360640190fd5b610624848484610c12565b949350505050565b60075460009060ff1615610678576040805160e560020a62461bcd02815260206004820152601060248201526000805160206117b0833981519152604482015290519081900360640190fd5b811515610687575060016106c4565b6106913383610cf1565b604051339083156108fc029084906000818181858888f193505050501580156106be573d6000803e3d6000fd5b50600090505b919050565b60055460ff1690565b600081565b60075460009060ff1615610723576040805160e560020a62461bcd02815260206004820152601060248201526000805160206117b0833981519152604482015290519081900360640190fd5b6105c08383610e71565b61073d610738610ec5565b610865565b15156107b9576040805160e560020a62461bcd02815260206004820152603060248201527f506175736572526f6c653a2063616c6c657220646f6573206e6f74206861766560448201527f207468652050617573657220726f6c6500000000000000000000000000000000606482015290519081900360840190fd5b60075460ff161515610815576040805160e560020a62461bcd02815260206004820152601460248201527f5061757361626c653a206e6f7420706175736564000000000000000000000000604482015290519081900360640190fd5b6007805460ff191690557f5db9ee0a495bf2e6ff9c91a7834c1ba4fdd244a5e8aa4e537bd38aeae4b073aa610848610ec5565b60408051600160a060020a039092168252519081900360200190a1565b600061087860068363ffffffff610ec916565b92915050565b60075460ff1690565b600181565b61089c610897610ec5565b610f71565b565b600160a060020a031660009081526020819052604090205490565b6108c4610738610ec5565b1515610940576040805160e560020a62461bcd02815260206004820152603060248201527f506175736572526f6c653a2063616c6c657220646f6573206e6f74206861766560448201527f207468652050617573657220726f6c6500000000000000000000000000000000606482015290519081900360840190fd5b61094981610fb9565b50565b610957610738610ec5565b15156109d3576040805160e560020a62461bcd02815260206004820152603060248201527f506175736572526f6c653a2063616c6c657220646f6573206e6f74206861766560448201527f207468652050617573657220726f6c6500000000000000000000000000000000606482015290519081900360840190fd5b60075460ff1615610a1c576040805160e560020a62461bcd02815260206004820152601060248201526000805160206117b0833981519152604482015290519081900360640190fd5b6007805460ff191660011790557f62e78cea01bee320cd4e420270b5ea74000d11b0c9f74754ebdbfc544b05a258610848610ec5565b60048054604080516020601f600260001961010060018816150201909516949094049384018190048102820181019092528281526060939092909183018282801561055f5780601f106105345761010080835404028352916020019161055f565b60075460009060ff1615610aff576040805160e560020a62461bcd02815260206004820152601060248201526000805160206117b0833981519152604482015290519081900360640190fd5b6105c08383611001565b60075460009060ff1615610b55576040805160e560020a62461bcd02815260206004820152601060248201526000805160206117b0833981519152604482015290519081900360640190fd5b6105c083836110b3565b60075460009060ff1615610bab576040805160e560020a62461bcd02815260206004820152601060248201526000805160206117b0833981519152604482015290519081900360640190fd5b341515610bba57506001610567565b610bc433346110c7565b50600090565b600160a060020a03918216600090815260016020908152604080832093909416825291909152205490565b6000610c09610c02610ec5565b84846111bc565b50600192915050565b6000610c1f848484611329565b610ce784610c2b610ec5565b610ce285606060405190810160405280602881526020017f45524332303a207472616e7366657220616d6f756e742065786365656473206181526020017f6c6c6f77616e6365000000000000000000000000000000000000000000000000815250600160008b600160a060020a0316600160a060020a031681526020019081526020016000206000610cbb610ec5565b600160a060020a03168152602081019190915260400160002054919063ffffffff61154a16565b6111bc565b5060019392505050565b600160a060020a0382161515610d77576040805160e560020a62461bcd02815260206004820152602160248201527f45524332303a206275726e2066726f6d20746865207a65726f2061646472657360448201527f7300000000000000000000000000000000000000000000000000000000000000606482015290519081900360840190fd5b60408051606081018252602281527f45524332303a206275726e20616d6f756e7420657863656564732062616c616e6020808301919091527f636500000000000000000000000000000000000000000000000000000000000082840152600160a060020a0385166000908152908190529190912054610dfd91839063ffffffff61154a16565b600160a060020a038316600090815260208190526040902055600254610e29908263ffffffff6115e416565b600255604080518281529051600091600160a060020a038516917fddf252ad1be2c89b69c2b068fc378daa952ba7f163c4a11628f55a4df523b3ef9181900360200190a35050565b6000610c09610e7e610ec5565b84610ce28560016000610e8f610ec5565b600160a060020a03908116825260208083019390935260409182016000908120918c16815292529020549063ffffffff61162616565b3390565b6000600160a060020a0382161515610f51576040805160e560020a62461bcd02815260206004820152602260248201527f526f6c65733a206163636f756e7420697320746865207a65726f20616464726560448201527f7373000000000000000000000000000000000000000000000000000000000000606482015290519081900360840190fd5b50600160a060020a03166000908152602091909152604090205460ff1690565b610f8260068263ffffffff61168316565b604051600160a060020a038216907fcd265ebaf09df2871cc7bd4133404a235ba12eff2041bb89d9c714a2621c7c7e90600090a250565b610fca60068263ffffffff61172b16565b604051600160a060020a038216907f6719d08c1888103bea251a4ed56406bd0c3e69723c8a1686e017e7bbe159b6f890600090a250565b6000610c0961100e610ec5565b84610ce285606060405190810160405280602581526020017f45524332303a2064656372656173656420616c6c6f77616e63652062656c6f7781526020017f207a65726f0000000000000000000000000000000000000000000000000000008152506001600061107c610ec5565b600160a060020a03908116825260208083019390935260409182016000908120918d1681529252902054919063ffffffff61154a16565b6000610c096110c0610ec5565b8484611329565b600160a060020a0382161515611127576040805160e560020a62461bcd02815260206004820152601f60248201527f45524332303a206d696e7420746f20746865207a65726f206164647265737300604482015290519081900360640190fd5b60025461113a908263ffffffff61162616565b600255600160a060020a038216600090815260208190526040902054611166908263ffffffff61162616565b600160a060020a0383166000818152602081815260408083209490945583518581529351929391927fddf252ad1be2c89b69c2b068fc378daa952ba7f163c4a11628f55a4df523b3ef9281900390910190a35050565b600160a060020a0383161515611241576040805160e560020a62461bcd028152602060048201526024808201527f45524332303a20617070726f76652066726f6d20746865207a65726f2061646460448201527f7265737300000000000000000000000000000000000000000000000000000000606482015290519081900360840190fd5b600160a060020a03821615156112c7576040805160e560020a62461bcd02815260206004820152602260248201527f45524332303a20617070726f766520746f20746865207a65726f20616464726560448201527f7373000000000000000000000000000000000000000000000000000000000000606482015290519081900360840190fd5b600160a060020a03808416600081815260016020908152604080832094871680845294825291829020859055815185815291517f8c5be1e5ebec7d5bd14f71427d1e84f3dd0314c0f7b2291e5b200ac8c7c3b9259281900390910190a3505050565b600160a060020a03831615156113af576040805160e560020a62461bcd02815260206004820152602560248201527f45524332303a207472616e736665722066726f6d20746865207a65726f20616460448201527f6472657373000000000000000000000000000000000000000000000000000000606482015290519081900360840190fd5b600160a060020a0382161515611435576040805160e560020a62461bcd02815260206004820152602360248201527f45524332303a207472616e7366657220746f20746865207a65726f206164647260448201527f6573730000000000000000000000000000000000000000000000000000000000606482015290519081900360840190fd5b60408051606081018252602681527f45524332303a207472616e7366657220616d6f756e74206578636565647320626020808301919091527f616c616e6365000000000000000000000000000000000000000000000000000082840152600160a060020a03861660009081529081905291909120546114bb91839063ffffffff61154a16565b600160a060020a0380851660009081526020819052604080822093909355908416815220546114f0908263ffffffff61162616565b600160a060020a038084166000818152602081815260409182902094909455805185815290519193928716927fddf252ad1be2c89b69c2b068fc378daa952ba7f163c4a11628f55a4df523b3ef92918290030190a3505050565b600081848411156115dc5760405160e560020a62461bcd0281526004018080602001828103825283818151815260200191508051906020019080838360005b838110156115a1578181015183820152602001611589565b50505050905090810190601f1680156115ce5780820380516001836020036101000a031916815260200191505b509250505060405180910390fd5b505050900390565b60006105c083836040805190810160405280601e81526020017f536166654d6174683a207375627472616374696f6e206f766572666c6f77000081525061154a565b6000828201838110156105c0576040805160e560020a62461bcd02815260206004820152601b60248201527f536166654d6174683a206164646974696f6e206f766572666c6f770000000000604482015290519081900360640190fd5b61168d8282610ec9565b1515611709576040805160e560020a62461bcd02815260206004820152602160248201527f526f6c65733a206163636f756e7420646f6573206e6f74206861766520726f6c60448201527f6500000000000000000000000000000000000000000000000000000000000000606482015290519081900360840190fd5b600160a060020a0316600090815260209190915260409020805460ff19169055565b6117358282610ec9565b1561178a576040805160e560020a62461bcd02815260206004820152601f60248201527f526f6c65733a206163636f756e7420616c72656164792068617320726f6c6500604482015290519081900360640190fd5b600160a060020a0316600090815260209190915260409020805460ff1916600117905556fe5061757361626c653a2070617573656400000000000000000000000000000000a165627a7a723058205e28a43de6cc68acd43c48aa0dc663ba296326abcf1e7716886e366007477b2f0029"
}